{
  "contractName": "Voting",
  "abi": [
    {
      "anonymous": false,
      "inputs": [
        {
          "indexed": true,
          "internalType": "address",
          "name": "previousOwner",
          "type": "address"
        },
        {
          "indexed": true,
          "internalType": "address",
          "name": "newOwner",
          "type": "address"
        }
      ],
      "name": "OwnershipTransferred",
      "type": "event"
    },
    {
      "anonymous": false,
      "inputs": [
        {
          "indexed": false,
          "internalType": "uint256",
          "name": "proposalId",
          "type": "uint256"
        }
      ],
      "name": "ProposalRegistered",
      "type": "event"
    },
    {
      "anonymous": false,
      "inputs": [
        {
          "indexed": false,
          "internalType": "address",
          "name": "voter",
          "type": "address"
        },
        {
          "indexed": false,
          "internalType": "uint256",
          "name": "proposalId",
          "type": "uint256"
        }
      ],
      "name": "Voted",
      "type": "event"
    },
    {
      "anonymous": false,
      "inputs": [
        {
          "indexed": false,
          "internalType": "address",
          "name": "voterAddress",
          "type": "address"
        }
      ],
      "name": "VoterRegistered",
      "type": "event"
    },
    {
      "anonymous": false,
      "inputs": [
        {
          "indexed": false,
          "internalType": "enum Voting.WorkflowStatus",
          "name": "previousStatus",
          "type": "uint8"
        },
        {
          "indexed": false,
          "internalType": "enum Voting.WorkflowStatus",
          "name": "newStatus",
          "type": "uint8"
        }
      ],
      "name": "WorkflowStatusChange",
      "type": "event"
    },
    {
      "inputs": [],
      "name": "owner",
      "outputs": [
        {
          "internalType": "address",
          "name": "",
          "type": "address"
        }
      ],
      "stateMutability": "view",
      "type": "function",
      "constant": true
    },
    {
      "inputs": [],
      "name": "renounceOwnership",
      "outputs": [],
      "stateMutability": "nonpayable",
      "type": "function"
    },
    {
      "inputs": [
        {
          "internalType": "address",
          "name": "newOwner",
          "type": "address"
        }
      ],
      "name": "transferOwnership",
      "outputs": [],
      "stateMutability": "nonpayable",
      "type": "function"
    },
    {
      "inputs": [],
      "name": "winningProposalID",
      "outputs": [
        {
          "internalType": "uint256",
          "name": "",
          "type": "uint256"
        }
      ],
      "stateMutability": "view",
      "type": "function",
      "constant": true
    },
    {
      "inputs": [],
      "name": "workflowStatus",
      "outputs": [
        {
          "internalType": "enum Voting.WorkflowStatus",
          "name": "",
          "type": "uint8"
        }
      ],
      "stateMutability": "view",
      "type": "function",
      "constant": true
    },
    {
      "inputs": [
        {
          "internalType": "address",
          "name": "_addr",
          "type": "address"
        }
      ],
      "name": "getVoter",
      "outputs": [
        {
          "components": [
            {
              "internalType": "bool",
              "name": "isRegistered",
              "type": "bool"
            },
            {
              "internalType": "bool",
              "name": "hasVoted",
              "type": "bool"
            },
            {
              "internalType": "uint256",
              "name": "votedProposalId",
              "type": "uint256"
            }
          ],
          "internalType": "struct Voting.Voter",
          "name": "",
          "type": "tuple"
        }
      ],
      "stateMutability": "view",
      "type": "function",
      "constant": true
    },
    {
      "inputs": [
        {
          "internalType": "uint256",
          "name": "_id",
          "type": "uint256"
        }
      ],
      "name": "getOneProposal",
      "outputs": [
        {
          "components": [
            {
              "internalType": "string",
              "name": "description",
              "type": "string"
            },
            {
              "internalType": "uint256",
              "name": "voteCount",
              "type": "uint256"
            }
          ],
          "internalType": "struct Voting.Proposal",
          "name": "",
          "type": "tuple"
        }
      ],
      "stateMutability": "view",
      "type": "function",
      "constant": true
    },
    {
      "inputs": [
        {
          "internalType": "address",
          "name": "_addr",
          "type": "address"
        }
      ],
      "name": "addVoter",
      "outputs": [],
      "stateMutability": "nonpayable",
      "type": "function"
    },
    {
      "inputs": [
        {
          "internalType": "string",
          "name": "_desc",
          "type": "string"
        }
      ],
      "name": "addProposal",
      "outputs": [],
      "stateMutability": "nonpayable",
      "type": "function"
    },
    {
      "inputs": [
        {
          "internalType": "uint256",
          "name": "_id",
          "type": "uint256"
        }
      ],
      "name": "setVote",
      "outputs": [],
      "stateMutability": "nonpayable",
      "type": "function"
    },
    {
      "inputs": [],
      "name": "startProposalsRegistering",
      "outputs": [],
      "stateMutability": "nonpayable",
      "type": "function"
    },
    {
      "inputs": [],
      "name": "endProposalsRegistering",
      "outputs": [],
      "stateMutability": "nonpayable",
      "type": "function"
    },
    {
      "inputs": [],
      "name": "startVotingSession",
      "outputs": [],
      "stateMutability": "nonpayable",
      "type": "function"
    },
    {
      "inputs": [],
      "name": "endVotingSession",
      "outputs": [],
      "stateMutability": "nonpayable",
      "type": "function"
    },
    {
      "inputs": [],
      "name": "tallyVotes",
      "outputs": [],
      "stateMutability": "nonpayable",
      "type": "function"
    }
  ],
  "bytecode": "0x608060405234801561001057600080fd5b5061002d61002261003260201b60201c565b61003a60201b60201c565b6100fe565b600033905090565b60008060009054906101000a900473ffffffffffffffffffffffffffffffffffffffff169050816000806101000a81548173ffffffffffffffffffffffffffffffffffffffff021916908373ffffffffffffffffffffffffffffffffffffffff1602179055508173ffffffffffffffffffffffffffffffffffffffff168173ffffffffffffffffffffffffffffffffffffffff167f8be0079c531659141344cd1fd0a4f28419497f9722a3daafe3b4186f6b6457e060405160405180910390a35050565b61243a806200010e6000396000f3fe608060405234801561001057600080fd5b50600436106100f55760003560e01c8063a7bfab1611610097578063d4f50f9811610066578063d4f50f98146101ee578063ee74c6781461021e578063f2fde38b14610228578063f4ab9adf14610244576100f5565b8063a7bfab16146101b2578063bdc01431146101bc578063c7038a4e146101da578063c88af42f146101e4576100f5565b8063715018a6116100d3578063715018a61461013c5780638da5cb5b14610146578063a1edffa214610164578063a2788cce14610182576100f5565b8063230796ae146100fa5780632fdae3c514610116578063378a217814610132575b600080fd5b610114600480360381019061010f9190611436565b610260565b005b610130600480360381019061012b91906114c8565b6105be565b005b61013a610841565b005b610144610930565b005b61014e610944565b60405161015b9190611556565b60405180910390f35b61016c61096d565b60405161017991906115e8565b60405180910390f35b61019c60048036038101906101979190611436565b610980565b6040516101a991906116df565b60405180910390f35b6101ba610ae7565b005b6101c4610bcd565b6040516101d19190611710565b60405180910390f35b6101e2610bd3565b005b6101ec610d4e565b005b61020860048036038101906102039190611757565b610e33565b60405161021591906117e1565b60405180910390f35b610226610f5b565b005b610242600480360381019061023d9190611757565b611041565b005b61025e60048036038101906102599190611757565b6110c4565b005b600460003373ffffffffffffffffffffffffffffffffffffffff1673ffffffffffffffffffffffffffffffffffffffff16815260200190815260200160002060000160009054906101000a900460ff166102ef576040517f08c379a00000000000000000000000000000000000000000000000000000000081526004016102e690611859565b60405180910390fd5b6003600581111561030357610302611571565b5b600260009054906101000a900460ff16600581111561032557610324611571565b5b14610365576040517f08c379a000000000000000000000000000000000000000000000000000000000815260040161035c906118eb565b60405180910390fd5b60011515600460003373ffffffffffffffffffffffffffffffffffffffff1673ffffffffffffffffffffffffffffffffffffffff16815260200190815260200160002060000160019054906101000a900460ff161515036103fb576040517f08c379a00000000000000000000000000000000000000000000000000000000081526004016103f290611957565b60405180910390fd5b6003805490508110610442576040517f08c379a0000000000000000000000000000000000000000000000000000000008152600401610439906119c3565b60405180910390fd5b80600460003373ffffffffffffffffffffffffffffffffffffffff1673ffffffffffffffffffffffffffffffffffffffff168152602001908152602001600020600101819055506001600460003373ffffffffffffffffffffffffffffffffffffffff1673ffffffffffffffffffffffffffffffffffffffff16815260200190815260200160002060000160016101000a81548160ff021916908315150217905550600381815481106104f8576104f76119e3565b5b9060005260206000209060020201600101600081548092919061051a90611a41565b919050555060065460038281548110610536576105356119e3565b5b9060005260206000209060020201600101541115610582578060058190555060038181548110610569576105686119e3565b5b9060005260206000209060020201600101546006819055505b7f4d99b957a2bc29a30ebd96a7be8e68fe50a3c701db28a91436490b7d53870ca433826040516105b3929190611a89565b60405180910390a150565b600460003373ffffffffffffffffffffffffffffffffffffffff1673ffffffffffffffffffffffffffffffffffffffff16815260200190815260200160002060000160009054906101000a900460ff1661064d576040517f08c379a000000000000000000000000000000000000000000000000000000000815260040161064490611859565b60405180910390fd5b6001600581111561066157610660611571565b5b600260009054906101000a900460ff16600581111561068357610682611571565b5b146106c3576040517f08c379a00000000000000000000000000000000000000000000000000000000081526004016106ba90611afe565b60405180910390fd5b6040516020016106d290611b44565b6040516020818303038152906040528051906020012082826040516020016106fb929190611ba0565b6040516020818303038152906040528051906020012003610751576040517f08c379a000000000000000000000000000000000000000000000000000000000815260040161074890611c36565b60405180910390fd5b6107596113b7565b82828080601f016020809104026020016040519081016040528093929190818152602001838380828437600081840152601f19601f820116905080830192505050505050508160000181905250600381908060018154018082558091505060019003906000526020600020906002020160009091909190915060008201518160000190816107e79190611e91565b506020820151816001015550507f92e393e9b54e2f801d3ea4beb0c5e71a21cc34a5d34b77d0fb8a3aa1650dc18f60016003805490506108279190611f63565b6040516108349190611710565b60405180910390a1505050565b61084961126d565b6004600581111561085d5761085c611571565b5b600260009054906101000a900460ff16600581111561087f5761087e611571565b5b146108bf576040517f08c379a00000000000000000000000000000000000000000000000000000000081526004016108b690612009565b60405180910390fd5b6005600260006101000a81548160ff021916908360058111156108e5576108e4611571565b5b02179055506005546001819055507f0a97a4ee45751e2abf3e4fc8946939630b11b371ea8ae39ccdc3056e98f5cc3f60046005604051610926929190612029565b60405180910390a1565b61093861126d565b61094260006112eb565b565b60008060009054906101000a900473ffffffffffffffffffffffffffffffffffffffff16905090565b600260009054906101000a900460ff1681565b6109886113b7565b600460003373ffffffffffffffffffffffffffffffffffffffff1673ffffffffffffffffffffffffffffffffffffffff16815260200190815260200160002060000160009054906101000a900460ff16610a17576040517f08c379a0000000000000000000000000000000000000000000000000000000008152600401610a0e90611859565b60405180910390fd5b60038281548110610a2b57610a2a6119e3565b5b9060005260206000209060020201604051806040016040529081600082018054610a5490611cb4565b80601f0160208091040260200160405190810160405280929190818152602001828054610a8090611cb4565b8015610acd5780601f10610aa257610100808354040283529160200191610acd565b820191906000526020600020905b815481529060010190602001808311610ab057829003601f168201915b505050505081526020016001820154815250509050919050565b610aef61126d565b60036005811115610b0357610b02611571565b5b600260009054906101000a900460ff166005811115610b2557610b24611571565b5b14610b65576040517f08c379a0000000000000000000000000000000000000000000000000000000008152600401610b5c906118eb565b60405180910390fd5b6004600260006101000a81548160ff02191690836005811115610b8b57610b8a611571565b5b02179055507f0a97a4ee45751e2abf3e4fc8946939630b11b371ea8ae39ccdc3056e98f5cc3f60036004604051610bc3929190612029565b60405180910390a1565b60015481565b610bdb61126d565b60006005811115610bef57610bee611571565b5b600260009054906101000a900460ff166005811115610c1157610c10611571565b5b14610c51576040517f08c379a0000000000000000000000000000000000000000000000000000000008152600401610c48906120c4565b60405180910390fd5b6001600260006101000a81548160ff02191690836005811115610c7757610c76611571565b5b0217905550610c846113b7565b6040518060400160405280600781526020017f47454e4553495300000000000000000000000000000000000000000000000000815250816000018190525060038190806001815401808255809150506001900390600052602060002090600202016000909190919091506000820151816000019081610d039190611e91565b506020820151816001015550507f0a97a4ee45751e2abf3e4fc8946939630b11b371ea8ae39ccdc3056e98f5cc3f60006001604051610d43929190612029565b60405180910390a150565b610d5661126d565b60016005811115610d6a57610d69611571565b5b600260009054906101000a900460ff166005811115610d8c57610d8b611571565b5b14610dcc576040517f08c379a0000000000000000000000000000000000000000000000000000000008152600401610dc390612156565b60405180910390fd5b60028060006101000a81548160ff02191690836005811115610df157610df0611571565b5b02179055507f0a97a4ee45751e2abf3e4fc8946939630b11b371ea8ae39ccdc3056e98f5cc3f60016002604051610e29929190612029565b60405180910390a1565b610e3b6113d1565b600460003373ffffffffffffffffffffffffffffffffffffffff1673ffffffffffffffffffffffffffffffffffffffff16815260200190815260200160002060000160009054906101000a900460ff16610eca576040517f08c379a0000000000000000000000000000000000000000000000000000000008152600401610ec190611859565b60405180910390fd5b600460008373ffffffffffffffffffffffffffffffffffffffff1673ffffffffffffffffffffffffffffffffffffffff1681526020019081526020016000206040518060600160405290816000820160009054906101000a900460ff161515151581526020016000820160019054906101000a900460ff161515151581526020016001820154815250509050919050565b610f6361126d565b60026005811115610f7757610f76611571565b5b600260009054906101000a900460ff166005811115610f9957610f98611571565b5b14610fd9576040517f08c379a0000000000000000000000000000000000000000000000000000000008152600401610fd0906121e8565b60405180910390fd5b6003600260006101000a81548160ff02191690836005811115610fff57610ffe611571565b5b02179055507f0a97a4ee45751e2abf3e4fc8946939630b11b371ea8ae39ccdc3056e98f5cc3f60026003604051611037929190612029565b60405180910390a1565b61104961126d565b600073ffffffffffffffffffffffffffffffffffffffff168173ffffffffffffffffffffffffffffffffffffffff16036110b8576040517f08c379a00000000000000000000000000000000000000000000000000000000081526004016110af9061227a565b60405180910390fd5b6110c1816112eb565b50565b6110cc61126d565b600060058111156110e0576110df611571565b5b600260009054906101000a900460ff16600581111561110257611101611571565b5b14611142576040517f08c379a00000000000000000000000000000000000000000000000000000000081526004016111399061230c565b60405180910390fd5b60011515600460008373ffffffffffffffffffffffffffffffffffffffff1673ffffffffffffffffffffffffffffffffffffffff16815260200190815260200160002060000160009054906101000a900460ff161515036111d8576040517f08c379a00000000000000000000000000000000000000000000000000000000081526004016111cf90612378565b60405180910390fd5b6001600460008373ffffffffffffffffffffffffffffffffffffffff1673ffffffffffffffffffffffffffffffffffffffff16815260200190815260200160002060000160006101000a81548160ff0219169083151502179055507fb6be2187d059cc2a55fe29e0e503b566e1e0f8c8780096e185429350acffd3dd816040516112629190611556565b60405180910390a150565b6112756113af565b73ffffffffffffffffffffffffffffffffffffffff16611293610944565b73ffffffffffffffffffffffffffffffffffffffff16146112e9576040517f08c379a00000000000000000000000000000000000000000000000000000000081526004016112e0906123e4565b60405180910390fd5b565b60008060009054906101000a900473ffffffffffffffffffffffffffffffffffffffff169050816000806101000a81548173ffffffffffffffffffffffffffffffffffffffff021916908373ffffffffffffffffffffffffffffffffffffffff1602179055508173ffffffffffffffffffffffffffffffffffffffff168173ffffffffffffffffffffffffffffffffffffffff167f8be0079c531659141344cd1fd0a4f28419497f9722a3daafe3b4186f6b6457e060405160405180910390a35050565b600033905090565b604051806040016040528060608152602001600081525090565b6040518060600160405280600015158152602001600015158152602001600081525090565b600080fd5b600080fd5b6000819050919050565b61141381611400565b811461141e57600080fd5b50565b6000813590506114308161140a565b92915050565b60006020828403121561144c5761144b6113f6565b5b600061145a84828501611421565b91505092915050565b600080fd5b600080fd5b600080fd5b60008083601f84011261148857611487611463565b5b8235905067ffffffffffffffff8111156114a5576114a4611468565b5b6020830191508360018202830111156114c1576114c061146d565b5b9250929050565b600080602083850312156114df576114de6113f6565b5b600083013567ffffffffffffffff8111156114fd576114fc6113fb565b5b61150985828601611472565b92509250509250929050565b600073ffffffffffffffffffffffffffffffffffffffff82169050919050565b600061154082611515565b9050919050565b61155081611535565b82525050565b600060208201905061156b6000830184611547565b92915050565b7f4e487b7100000000000000000000000000000000000000000000000000000000600052602160045260246000fd5b600681106115b1576115b0611571565b5b50565b60008190506115c2826115a0565b919050565b60006115d2826115b4565b9050919050565b6115e2816115c7565b82525050565b60006020820190506115fd60008301846115d9565b92915050565b600081519050919050565b600082825260208201905092915050565b60005b8381101561163d578082015181840152602081019050611622565b60008484015250505050565b6000601f19601f8301169050919050565b600061166582611603565b61166f818561160e565b935061167f81856020860161161f565b61168881611649565b840191505092915050565b61169c81611400565b82525050565b600060408301600083015184820360008601526116bf828261165a565b91505060208301516116d46020860182611693565b508091505092915050565b600060208201905081810360008301526116f981846116a2565b905092915050565b61170a81611400565b82525050565b60006020820190506117256000830184611701565b92915050565b61173481611535565b811461173f57600080fd5b50565b6000813590506117518161172b565b92915050565b60006020828403121561176d5761176c6113f6565b5b600061177b84828501611742565b91505092915050565b60008115159050919050565b61179981611784565b82525050565b6060820160008201516117b56000850182611790565b5060208201516117c86020850182611790565b5060408201516117db6040850182611693565b50505050565b60006060820190506117f6600083018461179f565b92915050565b600082825260208201905092915050565b7f596f75277265206e6f74206120766f7465720000000000000000000000000000600082015250565b60006118436012836117fc565b915061184e8261180d565b602082019050919050565b6000602082019050818103600083015261187281611836565b9050919050565b7f566f74696e672073657373696f6e20686176656e74207374617274656420796560008201527f7400000000000000000000000000000000000000000000000000000000000000602082015250565b60006118d56021836117fc565b91506118e082611879565b604082019050919050565b60006020820190508181036000830152611904816118c8565b9050919050565b7f596f75206861766520616c726561647920766f74656400000000000000000000600082015250565b60006119416016836117fc565b915061194c8261190b565b602082019050919050565b6000602082019050818103600083015261197081611934565b9050919050565b7f50726f706f73616c206e6f7420666f756e640000000000000000000000000000600082015250565b60006119ad6012836117fc565b91506119b882611977565b602082019050919050565b600060208201905081810360008301526119dc816119a0565b9050919050565b7f4e487b7100000000000000000000000000000000000000000000000000000000600052603260045260246000fd5b7f4e487b7100000000000000000000000000000000000000000000000000000000600052601160045260246000fd5b6000611a4c82611400565b91507fffffffffffffffffffffffffffffffffffffffffffffffffffffffffffffffff8203611a7e57611a7d611a12565b5b600182019050919050565b6000604082019050611a9e6000830185611547565b611aab6020830184611701565b9392505050565b7f50726f706f73616c7320617265206e6f7420616c6c6f77656420796574000000600082015250565b6000611ae8601d836117fc565b9150611af382611ab2565b602082019050919050565b60006020820190508181036000830152611b1781611adb565b9050919050565b50565b6000611b2e6000836117fc565b9150611b3982611b1e565b600082019050919050565b60006020820190508181036000830152611b5d81611b21565b9050919050565b82818337600083830152505050565b6000611b7f83856117fc565b9350611b8c838584611b64565b611b9583611649565b840190509392505050565b60006020820190508181036000830152611bbb818486611b73565b90509392505050565b7f566f7573206e6520706f7576657a20706173206e65207269656e2070726f706f60008201527f7365720000000000000000000000000000000000000000000000000000000000602082015250565b6000611c206023836117fc565b9150611c2b82611bc4565b604082019050919050565b60006020820190508181036000830152611c4f81611c13565b9050919050565b7f4e487b7100000000000000000000000000000000000000000000000000000000600052604160045260246000fd5b7f4e487b7100000000000000000000000000000000000000000000000000000000600052602260045260246000fd5b60006002820490506001821680611ccc57607f821691505b602082108103611cdf57611cde611c85565b5b50919050565b60008190508160005260206000209050919050565b60006020601f8301049050919050565b600082821b905092915050565b600060088302611d477fffffffffffffffffffffffffffffffffffffffffffffffffffffffffffffffff82611d0a565b611d518683611d0a565b95508019841693508086168417925050509392505050565b6000819050919050565b6000611d8e611d89611d8484611400565b611d69565b611400565b9050919050565b6000819050919050565b611da883611d73565b611dbc611db482611d95565b848454611d17565b825550505050565b600090565b611dd1611dc4565b611ddc818484611d9f565b505050565b5b81811015611e0057611df5600082611dc9565b600181019050611de2565b5050565b601f821115611e4557611e1681611ce5565b611e1f84611cfa565b81016020851015611e2e578190505b611e42611e3a85611cfa565b830182611de1565b50505b505050565b600082821c905092915050565b6000611e6860001984600802611e4a565b1980831691505092915050565b6000611e818383611e57565b9150826002028217905092915050565b611e9a82611603565b67ffffffffffffffff811115611eb357611eb2611c56565b5b611ebd8254611cb4565b611ec8828285611e04565b600060209050601f831160018114611efb5760008415611ee9578287015190505b611ef38582611e75565b865550611f5b565b601f198416611f0986611ce5565b60005b82811015611f3157848901518255600182019150602085019450602081019050611f0c565b86831015611f4e5784890151611f4a601f891682611e57565b8355505b6001600288020188555050505b505050505050565b6000611f6e82611400565b9150611f7983611400565b9250828203905081811115611f9157611f90611a12565b5b92915050565b7f43757272656e7420737461747573206973206e6f7420766f74696e672073657360008201527f73696f6e20656e64656400000000000000000000000000000000000000000000602082015250565b6000611ff3602a836117fc565b9150611ffe82611f97565b604082019050919050565b6000602082019050818103600083015261202281611fe6565b9050919050565b600060408201905061203e60008301856115d9565b61204b60208301846115d9565b9392505050565b7f5265676973746572696e672070726f706f73616c732063616e7420626520737460008201527f6172746564206e6f770000000000000000000000000000000000000000000000602082015250565b60006120ae6029836117fc565b91506120b982612052565b604082019050919050565b600060208201905081810360008301526120dd816120a1565b9050919050565b7f5265676973746572696e672070726f706f73616c7320686176656e742073746160008201527f7274656420796574000000000000000000000000000000000000000000000000602082015250565b60006121406028836117fc565b915061214b826120e4565b604082019050919050565b6000602082019050818103600083015261216f81612133565b9050919050565b7f5265676973746572696e672070726f706f73616c73207068617365206973206e60008201527f6f742066696e6973686564000000000000000000000000000000000000000000602082015250565b60006121d2602b836117fc565b91506121dd82612176565b604082019050919050565b60006020820190508181036000830152612201816121c5565b9050919050565b7f4f776e61626c653a206e6577206f776e657220697320746865207a65726f206160008201527f6464726573730000000000000000000000000000000000000000000000000000602082015250565b60006122646026836117fc565b915061226f82612208565b604082019050919050565b6000602082019050818103600083015261229381612257565b9050919050565b7f566f7465727320726567697374726174696f6e206973206e6f74206f70656e2060008201527f7965740000000000000000000000000000000000000000000000000000000000602082015250565b60006122f66023836117fc565b91506123018261229a565b604082019050919050565b60006020820190508181036000830152612325816122e9565b9050919050565b7f416c726561647920726567697374657265640000000000000000000000000000600082015250565b60006123626012836117fc565b915061236d8261232c565b602082019050919050565b6000602082019050818103600083015261239181612355565b9050919050565b7f4f776e61626c653a2063616c6c6572206973206e6f7420746865206f776e6572600082015250565b60006123ce6020836117fc565b91506123d982612398565b602082019050919050565b600060208201905081810360008301526123fd816123c1565b905091905056fea26469706673582212205519078e56704170b69d02b9777e7850864c0c85b5034fca6b6e390befe91f5a64736f6c63430008120033",
  "immutableReferences": {},
  "source": "// SPDX-License-Identifier: MIT\n\npragma solidity 0.8.18;\nimport \"../node_modules/@openzeppelin/contracts/access/Ownable.sol\";\n\ncontract Voting is Ownable {\n    /// @dev the id of the proposal which obtained the maximal number of votes\n    uint256 public winningProposalID;\n\n    struct Voter {\n        bool isRegistered;\n        bool hasVoted;\n        uint256 votedProposalId;\n    }\n\n    struct Proposal {\n        string description;\n        uint256 voteCount;\n    }\n\n    enum WorkflowStatus {\n        RegisteringVoters,\n        ProposalsRegistrationStarted,\n        ProposalsRegistrationEnded,\n        VotingSessionStarted,\n        VotingSessionEnded,\n        VotesTallied\n    }\n\n    ///@dev the current step of the vote\n    WorkflowStatus public workflowStatus;\n    ///@dev all the proposals\n    Proposal[] proposalsArray;\n    mapping(address => Voter) voters;\n\n    ///@dev a current proposal id with maximal votes\n    uint256 private currentWinningProposalID;\n    ///@dev the number of votes a the currentWinningProposalID\n    uint256 private currentMaxVotes;\n\n    event VoterRegistered(address voterAddress);\n    event WorkflowStatusChange(\n        WorkflowStatus previousStatus,\n        WorkflowStatus newStatus\n    );\n    event ProposalRegistered(uint256 proposalId);\n    event Voted(address voter, uint256 proposalId);\n\n    modifier onlyVoters() {\n        require(voters[msg.sender].isRegistered, \"You're not a voter\");\n        _;\n    }\n\n    /// @dev Get a voter from its address.\n    function getVoter(address _addr)\n        external\n        view\n        onlyVoters\n        returns (Voter memory)\n    {\n        return voters[_addr];\n    }\n\n    /// @dev Get a proposal from its id.\n    function getOneProposal(uint256 _id)\n        external\n        view\n        onlyVoters\n        returns (Proposal memory)\n    {\n        return proposalsArray[_id];\n    }\n\n    /// @dev Allow an address to participate to the vote.\n    function addVoter(address _addr) external onlyOwner {\n        require(\n            workflowStatus == WorkflowStatus.RegisteringVoters,\n            \"Voters registration is not open yet\"\n        );\n        require(voters[_addr].isRegistered != true, \"Already registered\");\n\n        voters[_addr].isRegistered = true;\n        emit VoterRegistered(_addr);\n    }\n\n    /// @dev Proposals must have a non empty description and be submitted in the ProposalsRegistrationStarted status.\n    function addProposal(string calldata _desc) external onlyVoters {\n        require(\n            workflowStatus == WorkflowStatus.ProposalsRegistrationStarted,\n            \"Proposals are not allowed yet\"\n        );\n        require(\n            keccak256(abi.encode(_desc)) != keccak256(abi.encode(\"\")),\n            \"Vous ne pouvez pas ne rien proposer\"\n        ); // facultatif\n        // voir que desc est different des autres\n\n        Proposal memory proposal;\n        proposal.description = _desc;\n        proposalsArray.push(proposal);\n        emit ProposalRegistered(proposalsArray.length - 1);\n    }\n\n    /// @dev Vote for a proposition with its id. Require to be in the status VotingSessionStarted and can be done only once by voter.\n    function setVote(uint256 _id) external onlyVoters {\n        require(\n            workflowStatus == WorkflowStatus.VotingSessionStarted,\n            \"Voting session havent started yet\"\n        );\n        require(voters[msg.sender].hasVoted != true, \"You have already voted\");\n        require(_id < proposalsArray.length, \"Proposal not found\"); // pas oblig, et pas besoin du >0 car uint\n\n        voters[msg.sender].votedProposalId = _id;\n        voters[msg.sender].hasVoted = true;\n        proposalsArray[_id].voteCount++;\n        if (proposalsArray[_id].voteCount > currentMaxVotes) {\n            currentWinningProposalID = _id;\n            currentMaxVotes = proposalsArray[_id].voteCount;\n        }\n        emit Voted(msg.sender, _id);\n    }\n\n    /// @dev update the workflow status from RegisteringVoters to ProposalsRegistrationStarted\n    function startProposalsRegistering() external onlyOwner {\n        require(\n            workflowStatus == WorkflowStatus.RegisteringVoters,\n            \"Registering proposals cant be started now\"\n        );\n        workflowStatus = WorkflowStatus.ProposalsRegistrationStarted;\n\n        Proposal memory proposal;\n        proposal.description = \"GENESIS\";\n        proposalsArray.push(proposal);\n\n        emit WorkflowStatusChange(\n            WorkflowStatus.RegisteringVoters,\n            WorkflowStatus.ProposalsRegistrationStarted\n        );\n    }\n\n    /// @dev update the workflow status from ProposalsRegistrationStarted to ProposalsRegistrationEnded\n    function endProposalsRegistering() external onlyOwner {\n        require(\n            workflowStatus == WorkflowStatus.ProposalsRegistrationStarted,\n            \"Registering proposals havent started yet\"\n        );\n        workflowStatus = WorkflowStatus.ProposalsRegistrationEnded;\n        emit WorkflowStatusChange(\n            WorkflowStatus.ProposalsRegistrationStarted,\n            WorkflowStatus.ProposalsRegistrationEnded\n        );\n    }\n\n    /// @dev update the workflow status from ProposalsRegistrationEnded to VotingSessionStarted\n    function startVotingSession() external onlyOwner {\n        require(\n            workflowStatus == WorkflowStatus.ProposalsRegistrationEnded,\n            \"Registering proposals phase is not finished\"\n        );\n        workflowStatus = WorkflowStatus.VotingSessionStarted;\n        emit WorkflowStatusChange(\n            WorkflowStatus.ProposalsRegistrationEnded,\n            WorkflowStatus.VotingSessionStarted\n        );\n    }\n\n    /// @dev update the workflow status from VotingSessionStarted to VotingSessionEnded\n    function endVotingSession() external onlyOwner {\n        require(\n            workflowStatus == WorkflowStatus.VotingSessionStarted,\n            \"Voting session havent started yet\"\n        );\n        workflowStatus = WorkflowStatus.VotingSessionEnded;\n        emit WorkflowStatusChange(\n            WorkflowStatus.VotingSessionStarted,\n            WorkflowStatus.VotingSessionEnded\n        );\n    }\n\n    /// @dev update the winningProposalID with the most voted proposition and update the workflow status from VotingSessionEnded to VotesTallied\n    function tallyVotes() external onlyOwner {\n        require(\n            workflowStatus == WorkflowStatus.VotingSessionEnded,\n            \"Current status is not voting session ended\"\n        );\n        workflowStatus = WorkflowStatus.VotesTallied;\n        winningProposalID = currentWinningProposalID;\n        emit WorkflowStatusChange(\n            WorkflowStatus.VotingSessionEnded,\n            WorkflowStatus.VotesTallied\n        );\n    }\n}\n",
  "sourcePath": "/Users/adrienvieilleribiere/Documents/work/alyra/Alyra-AV-OD/truffle/contracts/Voting.sol",
  "compiler": {
    "name": "solc",
    "version": "0.8.18+commit.87f61d96.Emscripten.clang"
  },
  "schemaVersion": "3.4.11",
  "updatedAt": "2023-03-17T12:00:32.726Z",
  "networkType": "ethereum",
  "devdoc": {
    "kind": "dev",
    "methods": {
      "addProposal(string)": {
        "details": "Proposals must have a non empty description and be submitted in the ProposalsRegistrationStarted status."
      },
      "addVoter(address)": {
        "details": "Allow an address to participate to the vote."
      },
      "endProposalsRegistering()": {
        "details": "update the workflow status from ProposalsRegistrationStarted to ProposalsRegistrationEnded"
      },
      "endVotingSession()": {
        "details": "update the workflow status from VotingSessionStarted to VotingSessionEnded"
      },
      "getOneProposal(uint256)": {
        "details": "Get a proposal from its id."
      },
      "getVoter(address)": {
        "details": "Get a voter from its address."
      },
      "owner()": {
        "details": "Returns the address of the current owner."
      },
      "renounceOwnership()": {
        "details": "Leaves the contract without owner. It will not be possible to call `onlyOwner` functions anymore. Can only be called by the current owner. NOTE: Renouncing ownership will leave the contract without an owner, thereby removing any functionality that is only available to the owner."
      },
      "setVote(uint256)": {
        "details": "Vote for a proposition with its id. Require to be in the status VotingSessionStarted and can be done only once by voter."
      },
      "startProposalsRegistering()": {
        "details": "update the workflow status from RegisteringVoters to ProposalsRegistrationStarted"
      },
      "startVotingSession()": {
        "details": "update the workflow status from ProposalsRegistrationEnded to VotingSessionStarted"
      },
      "tallyVotes()": {
        "details": "update the winningProposalID with the most voted proposition and update the workflow status from VotingSessionEnded to VotesTallied"
      },
      "transferOwnership(address)": {
        "details": "Transfers ownership of the contract to a new account (`newOwner`). Can only be called by the current owner."
      }
    },
    "stateVariables": {
      "currentMaxVotes": {
        "details": "the number of votes a the currentWinningProposalID"
      },
      "currentWinningProposalID": {
        "details": "a current proposal id with maximal votes"
      },
      "proposalsArray": {
        "details": "all the proposals"
      },
      "winningProposalID": {
        "details": "the id of the proposal which obtained the maximal number of votes"
      },
      "workflowStatus": {
        "details": "the current step of the vote"
      }
    },
    "version": 1
  },
  "userdoc": {
    "kind": "user",
    "methods": {},
    "version": 1
  }
}